{
  "contractName": "ERC20Holdable",
  "abi": [
    {
      "inputs": [],
      "stateMutability": "nonpayable",
      "type": "constructor"
    },
    {
      "anonymous": false,
      "inputs": [
        {
          "indexed": true,
          "internalType": "address",
          "name": "owner",
          "type": "address"
        },
        {
          "indexed": true,
          "internalType": "address",
          "name": "spender",
          "type": "address"
        },
        {
          "indexed": false,
          "internalType": "uint256",
          "name": "value",
          "type": "uint256"
        }
      ],
      "name": "Approval",
      "type": "event"
    },
    {
      "anonymous": false,
      "inputs": [
        {
          "indexed": false,
          "internalType": "uint256",
          "name": "holdId",
          "type": "uint256"
        },
        {
          "indexed": false,
          "internalType": "address",
          "name": "sender",
          "type": "address"
        },
        {
          "indexed": false,
          "internalType": "address",
          "name": "recipient",
          "type": "address"
        },
        {
          "indexed": false,
          "internalType": "uint256",
          "name": "amount",
          "type": "uint256"
        }
      ],
      "name": "HoldCanceled",
      "type": "event"
    },
    {
      "anonymous": false,
      "inputs": [
        {
          "indexed": false,
          "internalType": "uint256",
          "name": "holdId",
          "type": "uint256"
        },
        {
          "indexed": false,
          "internalType": "address",
          "name": "sender",
          "type": "address"
        },
        {
          "indexed": false,
          "internalType": "address",
          "name": "recipient",
          "type": "address"
        },
        {
          "indexed": false,
          "internalType": "uint256",
          "name": "amount",
          "type": "uint256"
        }
      ],
      "name": "HoldCreated",
      "type": "event"
    },
    {
      "anonymous": false,
      "inputs": [
        {
          "indexed": false,
          "internalType": "uint256",
          "name": "holdId",
          "type": "uint256"
        },
        {
          "indexed": false,
          "internalType": "address",
          "name": "sender",
          "type": "address"
        },
        {
          "indexed": false,
          "internalType": "address",
          "name": "recipient",
          "type": "address"
        },
        {
          "indexed": false,
          "internalType": "uint256",
          "name": "amount",
          "type": "uint256"
        }
      ],
      "name": "HoldExecuted",
      "type": "event"
    },
    {
      "anonymous": false,
      "inputs": [
        {
          "indexed": true,
          "internalType": "address",
          "name": "from",
          "type": "address"
        },
        {
          "indexed": true,
          "internalType": "address",
          "name": "to",
          "type": "address"
        },
        {
          "indexed": false,
          "internalType": "uint256",
          "name": "value",
          "type": "uint256"
        }
      ],
      "name": "Transfer",
      "type": "event"
    },
    {
      "inputs": [],
      "name": "DECIMALS",
      "outputs": [
        {
          "internalType": "uint8",
          "name": "",
          "type": "uint8"
        }
      ],
      "stateMutability": "view",
      "type": "function",
      "constant": true
    },
    {
      "inputs": [],
      "name": "INITIAL_SUPPLY",
      "outputs": [
        {
          "internalType": "uint256",
          "name": "",
          "type": "uint256"
        }
      ],
      "stateMutability": "view",
      "type": "function",
      "constant": true
    },
    {
      "inputs": [
        {
          "internalType": "address",
          "name": "owner",
          "type": "address"
        },
        {
          "internalType": "address",
          "name": "spender",
          "type": "address"
        }
      ],
      "name": "allowance",
      "outputs": [
        {
          "internalType": "uint256",
          "name": "",
          "type": "uint256"
        }
      ],
      "stateMutability": "view",
      "type": "function",
      "constant": true
    },
    {
      "inputs": [
        {
          "internalType": "address",
          "name": "spender",
          "type": "address"
        },
        {
          "internalType": "uint256",
          "name": "amount",
          "type": "uint256"
        }
      ],
      "name": "approve",
      "outputs": [
        {
          "internalType": "bool",
          "name": "",
          "type": "bool"
        }
      ],
      "stateMutability": "nonpayable",
      "type": "function"
    },
    {
      "inputs": [
        {
          "internalType": "address",
          "name": "account",
          "type": "address"
        }
      ],
      "name": "balanceOf",
      "outputs": [
        {
          "internalType": "uint256",
          "name": "",
          "type": "uint256"
        }
      ],
      "stateMutability": "view",
      "type": "function",
      "constant": true
    },
    {
      "inputs": [],
      "name": "decimals",
      "outputs": [
        {
          "internalType": "uint8",
          "name": "",
          "type": "uint8"
        }
      ],
      "stateMutability": "view",
      "type": "function",
      "constant": true
    },
    {
      "inputs": [
        {
          "internalType": "address",
          "name": "spender",
          "type": "address"
        },
        {
          "internalType": "uint256",
          "name": "subtractedValue",
          "type": "uint256"
        }
      ],
      "name": "decreaseAllowance",
      "outputs": [
        {
          "internalType": "bool",
          "name": "",
          "type": "bool"
        }
      ],
      "stateMutability": "nonpayable",
      "type": "function"
    },
    {
      "inputs": [
        {
          "internalType": "uint256",
          "name": "",
          "type": "uint256"
        }
      ],
      "name": "holds",
      "outputs": [
        {
          "internalType": "address",
          "name": "sender",
          "type": "address"
        },
        {
          "internalType": "address",
          "name": "recipient",
          "type": "address"
        },
        {
          "internalType": "uint256",
          "name": "amount",
          "type": "uint256"
        }
      ],
      "stateMutability": "view",
      "type": "function",
      "constant": true
    },
    {
      "inputs": [
        {
          "internalType": "address",
          "name": "spender",
          "type": "address"
        },
        {
          "internalType": "uint256",
          "name": "addedValue",
          "type": "uint256"
        }
      ],
      "name": "increaseAllowance",
      "outputs": [
        {
          "internalType": "bool",
          "name": "",
          "type": "bool"
        }
      ],
      "stateMutability": "nonpayable",
      "type": "function"
    },
    {
      "inputs": [],
      "name": "name",
      "outputs": [
        {
          "internalType": "string",
          "name": "",
          "type": "string"
        }
      ],
      "stateMutability": "view",
      "type": "function",
      "constant": true
    },
    {
      "inputs": [],
      "name": "symbol",
      "outputs": [
        {
          "internalType": "string",
          "name": "",
          "type": "string"
        }
      ],
      "stateMutability": "view",
      "type": "function",
      "constant": true
    },
    {
      "inputs": [],
      "name": "totalSupply",
      "outputs": [
        {
          "internalType": "uint256",
          "name": "",
          "type": "uint256"
        }
      ],
      "stateMutability": "view",
      "type": "function",
      "constant": true
    },
    {
      "inputs": [
        {
          "internalType": "address",
          "name": "recipient",
          "type": "address"
        },
        {
          "internalType": "uint256",
          "name": "amount",
          "type": "uint256"
        }
      ],
      "name": "transfer",
      "outputs": [
        {
          "internalType": "bool",
          "name": "",
          "type": "bool"
        }
      ],
      "stateMutability": "nonpayable",
      "type": "function"
    },
    {
      "inputs": [
        {
          "internalType": "address",
          "name": "sender",
          "type": "address"
        },
        {
          "internalType": "address",
          "name": "recipient",
          "type": "address"
        },
        {
          "internalType": "uint256",
          "name": "amount",
          "type": "uint256"
        }
      ],
      "name": "transferFrom",
      "outputs": [
        {
          "internalType": "bool",
          "name": "",
          "type": "bool"
        }
      ],
      "stateMutability": "nonpayable",
      "type": "function"
    },
    {
      "inputs": [
        {
          "internalType": "uint256",
          "name": "holdId",
          "type": "uint256"
        },
        {
          "internalType": "address",
          "name": "recipient",
          "type": "address"
        },
        {
          "internalType": "uint256",
          "name": "amount",
          "type": "uint256"
        }
      ],
      "name": "hold",
      "outputs": [
        {
          "internalType": "uint256",
          "name": "",
          "type": "uint256"
        }
      ],
      "stateMutability": "nonpayable",
      "type": "function"
    },
    {
      "inputs": [
        {
          "internalType": "uint256",
          "name": "holdId",
          "type": "uint256"
        },
        {
          "internalType": "address",
          "name": "sender",
          "type": "address"
        },
        {
          "internalType": "address",
          "name": "recipient",
          "type": "address"
        },
        {
          "internalType": "uint256",
          "name": "amount",
          "type": "uint256"
        }
      ],
      "name": "holdFrom",
      "outputs": [
        {
          "internalType": "uint256",
          "name": "",
          "type": "uint256"
        }
      ],
      "stateMutability": "nonpayable",
      "type": "function"
    },
    {
      "inputs": [
        {
          "internalType": "uint256",
          "name": "holdId",
          "type": "uint256"
        }
      ],
      "name": "executeHold",
      "outputs": [
        {
          "internalType": "bool",
          "name": "",
          "type": "bool"
        }
      ],
      "stateMutability": "nonpayable",
      "type": "function"
    },
    {
      "inputs": [
        {
          "internalType": "uint256",
          "name": "holdId",
          "type": "uint256"
        }
      ],
      "name": "cancelHold",
      "outputs": [
        {
          "internalType": "bool",
          "name": "",
          "type": "bool"
        }
      ],
      "stateMutability": "nonpayable",
      "type": "function"
    }
  ],
  "bytecode": "0x60806040523480156200001157600080fd5b506040518060400160405280600d81526020017f4552433230486f6c6461626c65000000000000000000000000000000000000008152506040518060400160405280600681526020017f4552433230480000000000000000000000000000000000000000000000000000815250816003908051906020019062000096929190620002e5565b508060049080519060200190620000af929190620002e5565b50505033600560006101000a81548173ffffffffffffffffffffffffffffffffffffffff021916908373ffffffffffffffffffffffffffffffffffffffff16021790555062000153600560009054906101000a900473ffffffffffffffffffffffffffffffffffffffff166200012a6200015960201b60201c565b600a620001389190620004f0565b6127106200014791906200062d565b6200016260201b60201c565b62000746565b60006012905090565b600073ffffffffffffffffffffffffffffffffffffffff168273ffffffffffffffffffffffffffffffffffffffff161415620001d5576040517f08c379a0000000000000000000000000000000000000000000000000000000008152600401620001cc90620003e8565b60405180910390fd5b620001e960008383620002db60201b60201c565b8060026000828254620001fd919062000438565b92505081905550806000808473ffffffffffffffffffffffffffffffffffffffff1673ffffffffffffffffffffffffffffffffffffffff168152602001908152602001600020600082825462000254919062000438565b925050819055508173ffffffffffffffffffffffffffffffffffffffff16600073ffffffffffffffffffffffffffffffffffffffff167fddf252ad1be2c89b69c2b068fc378daa952ba7f163c4a11628f55a4df523b3ef83604051620002bb91906200040a565b60405180910390a3620002d760008383620002e060201b60201c565b5050565b505050565b505050565b828054620002f390620006a5565b90600052602060002090601f01602090048101928262000317576000855562000363565b82601f106200033257805160ff191683800117855562000363565b8280016001018555821562000363579182015b828111156200036257825182559160200191906001019062000345565b5b50905062000372919062000376565b5090565b5b808211156200039157600081600090555060010162000377565b5090565b6000620003a4601f8362000427565b91507f45524332303a206d696e7420746f20746865207a65726f2061646472657373006000830152602082019050919050565b620003e2816200068e565b82525050565b60006020820190508181036000830152620004038162000395565b9050919050565b6000602082019050620004216000830184620003d7565b92915050565b600082825260208201905092915050565b600062000445826200068e565b915062000452836200068e565b9250827fffffffffffffffffffffffffffffffffffffffffffffffffffffffffffffffff038211156200048a5762000489620006db565b5b828201905092915050565b6000808291508390505b6001851115620004e757808604811115620004bf57620004be620006db565b5b6001851615620004cf5780820291505b8081029050620004df8562000739565b94506200049f565b94509492505050565b6000620004fd826200068e565b91506200050a8362000698565b9250620005397fffffffffffffffffffffffffffffffffffffffffffffffffffffffffffffffff848462000541565b905092915050565b60008262000553576001905062000626565b8162000563576000905062000626565b81600181146200057c57600281146200058757620005bd565b600191505062000626565b60ff8411156200059c576200059b620006db565b5b8360020a915084821115620005b657620005b5620006db565b5b5062000626565b5060208310610133831016604e8410600b8410161715620005f75782820a905083811115620005f157620005f0620006db565b5b62000626565b62000606848484600162000495565b9250905081840481111562000620576200061f620006db565b5b81810290505b9392505050565b60006200063a826200068e565b915062000647836200068e565b9250817fffffffffffffffffffffffffffffffffffffffffffffffffffffffffffffffff0483118215151615620006835762000682620006db565b5b828202905092915050565b6000819050919050565b600060ff82169050919050565b60006002820490506001821680620006be57607f821691505b60208210811415620006d557620006d46200070a565b5b50919050565b7f4e487b7100000000000000000000000000000000000000000000000000000000600052601160045260246000fd5b7f4e487b7100000000000000000000000000000000000000000000000000000000600052602260045260246000fd5b60008160011c9050919050565b61222a80620007566000396000f3fe608060405234801561001057600080fd5b50600436106101165760003560e01c806339509351116100a257806395d89b411161007157806395d89b4114610331578063a457c2d71461034f578063a9059cbb1461037f578063b71b0582146103af578063dd62ed3e146103e157610116565b806339509351146102715780636e3ebe6b146102a157806370369869146102d157806370a082311461030157610116565b8063226aa68a116100e9578063226aa68a146101b757806323b872dd146101e75780632e0f2625146102175780632ff2e9dc14610235578063313ce5671461025357610116565b806306fdde031461011b578063095ea7b31461013957806312c383641461016957806318160ddd14610199575b600080fd5b610123610411565b6040516101309190611c56565b60405180910390f35b610153600480360381019061014e9190611662565b6104a3565b6040516101609190611c3b565b60405180910390f35b610183600480360381019061017e919061169e565b6104c1565b6040516101909190611c3b565b60405180910390f35b6101a1610709565b6040516101ae9190611dd8565b60405180910390f35b6101d160048036038101906101cc919061172a565b610713565b6040516101de9190611dd8565b60405180910390f35b61020160048036038101906101fc9190611613565b610776565b60405161020e9190611c3b565b60405180910390f35b61021f61086e565b60405161022c9190611e38565b60405180910390f35b61023d610873565b60405161024a9190611dd8565b60405180910390f35b61025b610894565b6040516102689190611e38565b60405180910390f35b61028b60048036038101906102869190611662565b61089d565b6040516102989190611c3b565b60405180910390f35b6102bb60048036038101906102b691906116c7565b610949565b6040516102c89190611dd8565b60405180910390f35b6102eb60048036038101906102e6919061169e565b610ac8565b6040516102f89190611c3b565b60405180910390f35b61031b600480360381019061031691906115ae565b610caf565b6040516103289190611dd8565b60405180910390f35b610339610cf7565b6040516103469190611c56565b60405180910390f35b61036960048036038101906103649190611662565b610d89565b6040516103769190611c3b565b60405180910390f35b61039960048036038101906103949190611662565b610e74565b6040516103a69190611c3b565b60405180910390f35b6103c960048036038101906103c4919061169e565b610e92565b6040516103d893929190611c04565b60405180910390f35b6103fb60048036038101906103f691906115d7565b610efc565b6040516104089190611dd8565b60405180910390f35b60606003805461042090612118565b80601f016020809104026020016040519081016040528092919081815260200182805461044c90612118565b80156104995780601f1061046e57610100808354040283529160200191610499565b820191906000526020600020905b81548152906001019060200180831161047c57829003601f168201915b5050505050905090565b60006104b76104b0610f83565b8484610f8b565b6001905092915050565b6000806008600084815260200190815260200160002090506000816002015411610520576040517f08c379a000000000000000000000000000000000000000000000000000000000815260040161051790611d98565b60405180910390fd5b600560009054906101000a900473ffffffffffffffffffffffffffffffffffffffff1673ffffffffffffffffffffffffffffffffffffffff16610561610f83565b73ffffffffffffffffffffffffffffffffffffffff1614806105d95750610586610f83565b73ffffffffffffffffffffffffffffffffffffffff168160000160009054906101000a900473ffffffffffffffffffffffffffffffffffffffff1673ffffffffffffffffffffffffffffffffffffffff16145b610618576040517f08c379a000000000000000000000000000000000000000000000000000000000815260040161060f90611cd8565b60405180910390fd5b61066d600560009054906101000a900473ffffffffffffffffffffffffffffffffffffffff168260010160009054906101000a900473ffffffffffffffffffffffffffffffffffffffff168360020154611156565b610676836113d7565b7f25bfaf5a77b3c6797250278df23201f88596159d87d6e1af0996ecec716475c9838260000160009054906101000a900473ffffffffffffffffffffffffffffffffffffffff168360010160009054906101000a900473ffffffffffffffffffffffffffffffffffffffff1684600201546040516106f79493929190611df3565b60405180910390a16001915050919050565b6000600254905090565b6000610728610720610f83565b848487611446565b7f13b8bad3fde196ea364df8943f997584558f925555da397e2f3822e2436aa35984610752610f83565b85856040516107649493929190611df3565b60405180910390a18390509392505050565b6000610783848484611156565b6000600160008673ffffffffffffffffffffffffffffffffffffffff1673ffffffffffffffffffffffffffffffffffffffff16815260200190815260200160002060006107ce610f83565b73ffffffffffffffffffffffffffffffffffffffff1673ffffffffffffffffffffffffffffffffffffffff1681526020019081526020016000205490508281101561084e576040517f08c379a000000000000000000000000000000000000000000000000000000000815260040161084590611d18565b60405180910390fd5b6108628561085a610f83565b858403610f8b565b60019150509392505050565b601281565b601260ff16600a6108849190611f18565b6127106108919190612036565b81565b60006012905090565b600061093f6108aa610f83565b8484600160006108b8610f83565b73ffffffffffffffffffffffffffffffffffffffff1673ffffffffffffffffffffffffffffffffffffffff16815260200190815260200160002060008873ffffffffffffffffffffffffffffffffffffffff1673ffffffffffffffffffffffffffffffffffffffff1681526020019081526020016000205461093a9190611e6f565b610f8b565b6001905092915050565b600080600860008781526020019081526020016000206002015411156109a4576040517f08c379a000000000000000000000000000000000000000000000000000000000815260040161099b90611d38565b60405180910390fd5b6000600860008781526020019081526020016000209050848160000160006101000a81548173ffffffffffffffffffffffffffffffffffffffff021916908373ffffffffffffffffffffffffffffffffffffffff160217905550838160010160006101000a81548173ffffffffffffffffffffffffffffffffffffffff021916908373ffffffffffffffffffffffffffffffffffffffff160217905550828160020181905550610a7785600560009054906101000a900473ffffffffffffffffffffffffffffffffffffffff1685610776565b507f13b8bad3fde196ea364df8943f997584558f925555da397e2f3822e2436aa35986610aa2610f83565b8686604051610ab49493929190611df3565b60405180910390a185915050949350505050565b600080600860008481526020019081526020016000209050600560009054906101000a900473ffffffffffffffffffffffffffffffffffffffff1673ffffffffffffffffffffffffffffffffffffffff16610b21610f83565b73ffffffffffffffffffffffffffffffffffffffff1614610b77576040517f08c379a0000000000000000000000000000000000000000000000000000000008152600401610b6e90611cf8565b60405180910390fd5b6000816002015411610bbe576040517f08c379a0000000000000000000000000000000000000000000000000000000008152600401610bb590611d98565b60405180910390fd5b610c13600560009054906101000a900473ffffffffffffffffffffffffffffffffffffffff168260000160009054906101000a900473ffffffffffffffffffffffffffffffffffffffff168360020154611156565b7fa0d9f06531460a4718398a225fe1fcd1c16b23ffcb2966d00441e27f14d34c37838260000160009054906101000a900473ffffffffffffffffffffffffffffffffffffffff168360010160009054906101000a900473ffffffffffffffffffffffffffffffffffffffff168460020154604051610c949493929190611df3565b60405180910390a1610ca5836113d7565b6001915050919050565b60008060008373ffffffffffffffffffffffffffffffffffffffff1673ffffffffffffffffffffffffffffffffffffffff168152602001908152602001600020549050919050565b606060048054610d0690612118565b80601f0160208091040260200160405190810160405280929190818152602001828054610d3290612118565b8015610d7f5780601f10610d5457610100808354040283529160200191610d7f565b820191906000526020600020905b815481529060010190602001808311610d6257829003601f168201915b5050505050905090565b60008060016000610d98610f83565b73ffffffffffffffffffffffffffffffffffffffff1673ffffffffffffffffffffffffffffffffffffffff16815260200190815260200160002060008573ffffffffffffffffffffffffffffffffffffffff1673ffffffffffffffffffffffffffffffffffffffff16815260200190815260200160002054905082811015610e55576040517f08c379a0000000000000000000000000000000000000000000000000000000008152600401610e4c90611db8565b60405180910390fd5b610e69610e60610f83565b85858403610f8b565b600191505092915050565b6000610e88610e81610f83565b8484611156565b6001905092915050565b60086020528060005260406000206000915090508060000160009054906101000a900473ffffffffffffffffffffffffffffffffffffffff16908060010160009054906101000a900473ffffffffffffffffffffffffffffffffffffffff16908060020154905083565b6000600160008473ffffffffffffffffffffffffffffffffffffffff1673ffffffffffffffffffffffffffffffffffffffff16815260200190815260200160002060008373ffffffffffffffffffffffffffffffffffffffff1673ffffffffffffffffffffffffffffffffffffffff16815260200190815260200160002054905092915050565b600033905090565b600073ffffffffffffffffffffffffffffffffffffffff168373ffffffffffffffffffffffffffffffffffffffff161415610ffb576040517f08c379a0000000000000000000000000000000000000000000000000000000008152600401610ff290611d78565b60405180910390fd5b600073ffffffffffffffffffffffffffffffffffffffff168273ffffffffffffffffffffffffffffffffffffffff16141561106b576040517f08c379a000000000000000000000000000000000000000000000000000000000815260040161106290611c98565b60405180910390fd5b80600160008573ffffffffffffffffffffffffffffffffffffffff1673ffffffffffffffffffffffffffffffffffffffff16815260200190815260200160002060008473ffffffffffffffffffffffffffffffffffffffff1673ffffffffffffffffffffffffffffffffffffffff168152602001908152602001600020819055508173ffffffffffffffffffffffffffffffffffffffff168373ffffffffffffffffffffffffffffffffffffffff167f8c5be1e5ebec7d5bd14f71427d1e84f3dd0314c0f7b2291e5b200ac8c7c3b925836040516111499190611dd8565b60405180910390a3505050565b600073ffffffffffffffffffffffffffffffffffffffff168373ffffffffffffffffffffffffffffffffffffffff1614156111c6576040517f08c379a00000000000000000000000000000000000000000000000000000000081526004016111bd90611d58565b60405180910390fd5b600073ffffffffffffffffffffffffffffffffffffffff168273ffffffffffffffffffffffffffffffffffffffff161415611236576040517f08c379a000000000000000000000000000000000000000000000000000000000815260040161122d90611c78565b60405180910390fd5b61124183838361157a565b60008060008573ffffffffffffffffffffffffffffffffffffffff1673ffffffffffffffffffffffffffffffffffffffff168152602001908152602001600020549050818110156112c7576040517f08c379a00000000000000000000000000000000000000000000000000000000081526004016112be90611cb8565b60405180910390fd5b8181036000808673ffffffffffffffffffffffffffffffffffffffff1673ffffffffffffffffffffffffffffffffffffffff16815260200190815260200160002081905550816000808573ffffffffffffffffffffffffffffffffffffffff1673ffffffffffffffffffffffffffffffffffffffff168152602001908152602001600020600082825461135a9190611e6f565b925050819055508273ffffffffffffffffffffffffffffffffffffffff168473ffffffffffffffffffffffffffffffffffffffff167fddf252ad1be2c89b69c2b068fc378daa952ba7f163c4a11628f55a4df523b3ef846040516113be9190611dd8565b60405180910390a36113d184848461157f565b50505050565b60086000828152602001908152602001600020600080820160006101000a81549073ffffffffffffffffffffffffffffffffffffffff02191690556001820160006101000a81549073ffffffffffffffffffffffffffffffffffffffff02191690556002820160009055505050565b6000600860008381526020019081526020016000206002015411156114a0576040517f08c379a000000000000000000000000000000000000000000000000000000000815260040161149790611d38565b60405180910390fd5b6114cd84600560009054906101000a900473ffffffffffffffffffffffffffffffffffffffff1684611156565b6000600860008381526020019081526020016000209050848160000160006101000a81548173ffffffffffffffffffffffffffffffffffffffff021916908373ffffffffffffffffffffffffffffffffffffffff160217905550838160010160006101000a81548173ffffffffffffffffffffffffffffffffffffffff021916908373ffffffffffffffffffffffffffffffffffffffff1602179055508281600201819055505050505050565b505050565b505050565b600081359050611593816121c6565b92915050565b6000813590506115a8816121dd565b92915050565b6000602082840312156115c057600080fd5b60006115ce84828501611584565b91505092915050565b600080604083850312156115ea57600080fd5b60006115f885828601611584565b925050602061160985828601611584565b9150509250929050565b60008060006060848603121561162857600080fd5b600061163686828701611584565b935050602061164786828701611584565b925050604061165886828701611599565b9150509250925092565b6000806040838503121561167557600080fd5b600061168385828601611584565b925050602061169485828601611599565b9150509250929050565b6000602082840312156116b057600080fd5b60006116be84828501611599565b91505092915050565b600080600080608085870312156116dd57600080fd5b60006116eb87828801611599565b94505060206116fc87828801611584565b935050604061170d87828801611584565b925050606061171e87828801611599565b91505092959194509250565b60008060006060848603121561173f57600080fd5b600061174d86828701611599565b935050602061175e86828701611584565b925050604061176f86828701611599565b9150509250925092565b61178281612090565b82525050565b611791816120a2565b82525050565b60006117a282611e53565b6117ac8185611e5e565b93506117bc8185602086016120e5565b6117c5816121a8565b840191505092915050565b60006117dd602383611e5e565b91507f45524332303a207472616e7366657220746f20746865207a65726f206164647260008301527f65737300000000000000000000000000000000000000000000000000000000006020830152604082019050919050565b6000611843602283611e5e565b91507f45524332303a20617070726f766520746f20746865207a65726f20616464726560008301527f73730000000000000000000000000000000000000000000000000000000000006020830152604082019050919050565b60006118a9602683611e5e565b91507f45524332303a207472616e7366657220616d6f756e742065786365656473206260008301527f616c616e636500000000000000000000000000000000000000000000000000006020830152604082019050919050565b600061190f603983611e5e565b91507f4f6e6c7920636f6e7472616374206f776e6572206f7220686f6c64206372656160008301527f746f722063616e20657865637574652074686520686f6c642e000000000000006020830152604082019050919050565b6000611975602883611e5e565b91507f4f6e6c7920636f6e7472616374206f776e65722063616e20726576657274207460008301527f686520686f6c642e0000000000000000000000000000000000000000000000006020830152604082019050919050565b60006119db602883611e5e565b91507f45524332303a207472616e7366657220616d6f756e742065786365656473206160008301527f6c6c6f77616e63650000000000000000000000000000000000000000000000006020830152604082019050919050565b6000611a41601683611e5e565b91507f486f6c64206964206d75737420626520756e69717565000000000000000000006000830152602082019050919050565b6000611a81602583611e5e565b91507f45524332303a207472616e736665722066726f6d20746865207a65726f20616460008301527f64726573730000000000000000000000000000000000000000000000000000006020830152604082019050919050565b6000611ae7602483611e5e565b91507f45524332303a20617070726f76652066726f6d20746865207a65726f2061646460008301527f72657373000000000000000000000000000000000000000000000000000000006020830152604082019050919050565b6000611b4d601383611e5e565b91507f486f6c6420646f6573206e6f74206578697374000000000000000000000000006000830152602082019050919050565b6000611b8d602583611e5e565b91507f45524332303a2064656372656173656420616c6c6f77616e63652062656c6f7760008301527f207a65726f0000000000000000000000000000000000000000000000000000006020830152604082019050919050565b611bef816120ce565b82525050565b611bfe816120d8565b82525050565b6000606082019050611c196000830186611779565b611c266020830185611779565b611c336040830184611be6565b949350505050565b6000602082019050611c506000830184611788565b92915050565b60006020820190508181036000830152611c708184611797565b905092915050565b60006020820190508181036000830152611c91816117d0565b9050919050565b60006020820190508181036000830152611cb181611836565b9050919050565b60006020820190508181036000830152611cd18161189c565b9050919050565b60006020820190508181036000830152611cf181611902565b9050919050565b60006020820190508181036000830152611d1181611968565b9050919050565b60006020820190508181036000830152611d31816119ce565b9050919050565b60006020820190508181036000830152611d5181611a34565b9050919050565b60006020820190508181036000830152611d7181611a74565b9050919050565b60006020820190508181036000830152611d9181611ada565b9050919050565b60006020820190508181036000830152611db181611b40565b9050919050565b60006020820190508181036000830152611dd181611b80565b9050919050565b6000602082019050611ded6000830184611be6565b92915050565b6000608082019050611e086000830187611be6565b611e156020830186611779565b611e226040830185611779565b611e2f6060830184611be6565b95945050505050565b6000602082019050611e4d6000830184611bf5565b92915050565b600081519050919050565b600082825260208201905092915050565b6000611e7a826120ce565b9150611e85836120ce565b9250827fffffffffffffffffffffffffffffffffffffffffffffffffffffffffffffffff03821115611eba57611eb961214a565b5b828201905092915050565b6000808291508390505b6001851115611f0f57808604811115611eeb57611eea61214a565b5b6001851615611efa5780820291505b8081029050611f08856121b9565b9450611ecf565b94509492505050565b6000611f23826120ce565b9150611f2e836120ce565b9250611f5b7fffffffffffffffffffffffffffffffffffffffffffffffffffffffffffffffff8484611f63565b905092915050565b600082611f73576001905061202f565b81611f81576000905061202f565b8160018114611f975760028114611fa157611fd0565b600191505061202f565b60ff841115611fb357611fb261214a565b5b8360020a915084821115611fca57611fc961214a565b5b5061202f565b5060208310610133831016604e8410600b84101617156120055782820a90508381111561200057611fff61214a565b5b61202f565b6120128484846001611ec5565b925090508184048111156120295761202861214a565b5b81810290505b9392505050565b6000612041826120ce565b915061204c836120ce565b9250817fffffffffffffffffffffffffffffffffffffffffffffffffffffffffffffffff04831182151516156120855761208461214a565b5b828202905092915050565b600061209b826120ae565b9050919050565b60008115159050919050565b600073ffffffffffffffffffffffffffffffffffffffff82169050919050565b6000819050919050565b600060ff82169050919050565b60005b838110156121035780820151818401526020810190506120e8565b83811115612112576000848401525b50505050565b6000600282049050600182168061213057607f821691505b6020821081141561214457612143612179565b5b50919050565b7f4e487b7100000000000000000000000000000000000000000000000000000000600052601160045260246000fd5b7f4e487b7100000000000000000000000000000000000000000000000000000000600052602260045260246000fd5b6000601f19601f8301169050919050565b60008160011c9050919050565b6121cf81612090565b81146121da57600080fd5b50565b6121e6816120ce565b81146121f157600080fd5b5056fea26469706673582212200c7597d702299e9a6f4490d91d737118235779b26c492beb96616f51bc333c1a64736f6c63430008000033",
  "immutableReferences": {},
  "source": "// SPDX-License-Identifier: MIT\r\npragma solidity 0.8.0;\r\n\r\nimport \"@openzeppelin/contracts/token/ERC20/ERC20.sol\";\r\nimport \"./interfaces/IERC20Holdable.sol\";\r\n\r\ncontract ERC20Holdable is IERC20Holdable, ERC20 {\r\n  address private tokenOwner;\r\n  uint8 public constant DECIMALS = 18;\r\n  uint256 public constant INITIAL_SUPPLY = 10000 * (10 ** uint256(DECIMALS));\r\n\r\n  constructor() ERC20(\"ERC20Holdable\", \"ERC20H\") {\r\n    tokenOwner = msg.sender;\r\n    _mint(tokenOwner, 10000 * (10 ** decimals()));\r\n  }\r\n\r\n  event HoldCreated(\r\n    uint256 holdId,\r\n    address sender,\r\n    address recipient,\r\n    uint256 amount\r\n  );\r\n\r\n  event HoldExecuted(\r\n    uint256 holdId,\r\n    address sender,\r\n    address recipient,\r\n    uint256 amount\r\n  );\r\n\r\n  event HoldCanceled(\r\n    uint256 holdId,\r\n    address sender,\r\n    address recipient,\r\n    uint256 amount\r\n  );\r\n\r\n  mapping(address => mapping(address => uint256)) private _allowances;\r\n  mapping(address => uint256) private _balances;\r\n  mapping(uint256 => Hold) public holds;\r\n\r\n  function hold(\r\n    uint256 holdId,\r\n    address recipient,\r\n    uint256 amount\r\n  ) public override returns (uint256)\r\n  {\r\n      _hold(_msgSender(), recipient, amount, holdId);\r\n\r\n      emit HoldCreated(holdId, _msgSender(), recipient, amount);\r\n      return holdId;\r\n  }\r\n\r\n  function holdFrom(\r\n    uint256 holdId,\r\n    address sender,\r\n    address recipient,\r\n    uint256 amount\r\n  ) public override returns (uint256)\r\n  {\r\n      require(holds[holdId].amount <= 0, \"Hold id must be unique\");\r\n\r\n      Hold storage newHold = holds[holdId];\r\n\r\n      newHold.sender = sender;\r\n      newHold.recipient = recipient;\r\n      newHold.amount = amount;\r\n\r\n      transferFrom(sender, tokenOwner, amount);\r\n\r\n      emit HoldCreated(holdId, _msgSender(), recipient, amount);\r\n\r\n      return holdId;\r\n  }\r\n\r\n  function executeHold(\r\n    uint256 holdId\r\n  ) public override returns (bool)\r\n  {\r\n      Hold storage executableHold = holds[holdId];\r\n      require(executableHold.amount > 0, \"Hold does not exist\");\r\n      require(_msgSender() == tokenOwner || executableHold.sender == _msgSender(), 'Only contract owner or hold creator can execute the hold.' );\r\n      _transfer(tokenOwner, executableHold.recipient, executableHold.amount);\r\n      _deleteHold(holdId);\r\n\r\n      emit HoldExecuted(holdId, executableHold.sender, executableHold.recipient, executableHold.amount);\r\n      return true;\r\n  }\r\n\r\n  function cancelHold(\r\n    uint256 holdId\r\n  ) public override returns (bool)\r\n  {\r\n      Hold storage removableHold = holds[holdId];\r\n      require(_msgSender() == tokenOwner, 'Only contract owner can revert the hold.' );\r\n      require(removableHold.amount > 0, \"Hold does not exist\");\r\n      _transfer(tokenOwner, removableHold.sender, removableHold.amount);\r\n\r\n      emit HoldCanceled(holdId, removableHold.sender, removableHold.recipient, removableHold.amount);\r\n      _deleteHold(holdId);\r\n\r\n      return true;\r\n  }\r\n\r\n  function _hold(\r\n      address sender,\r\n      address recipient,\r\n      uint256 amount,\r\n      uint256 holdId\r\n  ) internal virtual {\r\n\r\n      require(holds[holdId].amount <= 0, \"Hold id must be unique\");\r\n\r\n      _transfer(sender, tokenOwner, amount);\r\n\r\n      Hold storage newHold = holds[holdId];\r\n\r\n      newHold.sender = sender;\r\n      newHold.recipient = recipient;\r\n      newHold.amount = amount;\r\n  }\r\n\r\n  function _deleteHold(\r\n    uint256 holdId\r\n  ) internal virtual {\r\n    delete holds[holdId];\r\n  }\r\n}\r\n",
  "sourcePath": "C:\\Users\\pablo\\Code\\ERC20-Hold\\contracts\\ERC20Holdable.sol",
  "compiler": {
    "name": "solc",
    "version": "0.8.0+commit.c7dfd78e.Emscripten.clang"
  },
  "schemaVersion": "3.4.3",
  "updatedAt": "2021-11-30T15:58:09.411Z",
  "networkType": "ethereum",
  "devdoc": {
    "kind": "dev",
    "methods": {
      "allowance(address,address)": {
        "details": "See {IERC20-allowance}."
      },
      "approve(address,uint256)": {
        "details": "See {IERC20-approve}. Requirements: - `spender` cannot be the zero address."
      },
      "balanceOf(address)": {
        "details": "See {IERC20-balanceOf}."
      },
      "decimals()": {
        "details": "Returns the number of decimals used to get its user representation. For example, if `decimals` equals `2`, a balance of `505` tokens should be displayed to a user as `5.05` (`505 / 10 ** 2`). Tokens usually opt for a value of 18, imitating the relationship between Ether and Wei. This is the value {ERC20} uses, unless this function is overridden; NOTE: This information is only used for _display_ purposes: it in no way affects any of the arithmetic of the contract, including {IERC20-balanceOf} and {IERC20-transfer}."
      },
      "decreaseAllowance(address,uint256)": {
        "details": "Atomically decreases the allowance granted to `spender` by the caller. This is an alternative to {approve} that can be used as a mitigation for problems described in {IERC20-approve}. Emits an {Approval} event indicating the updated allowance. Requirements: - `spender` cannot be the zero address. - `spender` must have allowance for the caller of at least `subtractedValue`."
      },
      "hold(uint256,address,uint256)": {
        "details": "Moves `amount` tokens from the caller's account to account[0] (the token owners account) until the hold is executed or returned. Returns a boolean value indicating whether the operation succeeded. Emits a {HoldCreated} event."
      },
      "holdFrom(uint256,address,address,uint256)": {
        "details": "Moves `amount` tokens from the caller's account to account[0] (the token owners account) using the allowance mechanism until the hold is executed or returned. `amount` is then deducted from the caller's allowance. Returns a boolean value indicating whether the operation succeeded. Emits a {HoldCreated} event."
      },
      "increaseAllowance(address,uint256)": {
        "details": "Atomically increases the allowance granted to `spender` by the caller. This is an alternative to {approve} that can be used as a mitigation for problems described in {IERC20-approve}. Emits an {Approval} event indicating the updated allowance. Requirements: - `spender` cannot be the zero address."
      },
      "name()": {
        "details": "Returns the name of the token."
      },
      "symbol()": {
        "details": "Returns the symbol of the token, usually a shorter version of the name."
      },
      "totalSupply()": {
        "details": "See {IERC20-totalSupply}."
      },
      "transfer(address,uint256)": {
        "details": "See {IERC20-transfer}. Requirements: - `recipient` cannot be the zero address. - the caller must have a balance of at least `amount`."
      },
      "transferFrom(address,address,uint256)": {
        "details": "See {IERC20-transferFrom}. Emits an {Approval} event indicating the updated allowance. This is not required by the EIP. See the note at the beginning of {ERC20}. Requirements: - `sender` and `recipient` cannot be the zero address. - `sender` must have a balance of at least `amount`. - the caller must have allowance for ``sender``'s tokens of at least `amount`."
      }
    },
    "version": 1
  },
  "userdoc": {
    "kind": "user",
    "methods": {
      "cancelHold(uint256)": {
        "notice": "Returns the money on hold and all the balance is available for transfers.  This function can only be called by the owner of the contract.  Emits a {HoldCanceled} event."
      },
      "executeHold(uint256)": {
        "notice": "When the method is executed the money is transferred from the on hold balance to the wallet  where the hold was instructed.  It can only be executed by the same address that created the hold or the contract owner.  Emits a {HoldExecuted} event."
      }
    },
    "version": 1
  }
}